{
  "_format": "hh3-artifact-1",
  "contractName": "FeedProxy",
  "sourceName": "contracts/FeedProxy.sol",
  "abi": [
    {
      "inputs": [
        {
          "internalType": "address",
          "name": "_reactiveVmId",
          "type": "address"
        }
      ],
      "stateMutability": "nonpayable",
      "type": "constructor"
    },
    {
      "anonymous": false,
      "inputs": [
        {
          "indexed": false,
          "internalType": "uint80",
          "name": "roundId",
          "type": "uint80"
        },
        {
          "indexed": false,
          "internalType": "int256",
          "name": "answer",
          "type": "int256"
        },
        {
          "indexed": false,
          "internalType": "uint256",
          "name": "startedAt",
          "type": "uint256"
        },
        {
          "indexed": false,
          "internalType": "uint256",
          "name": "updatedAt",
          "type": "uint256"
        },
        {
          "indexed": false,
          "internalType": "uint80",
          "name": "answeredInRound",
          "type": "uint80"
        }
      ],
      "name": "PriceUpdated",
      "type": "event"
    },
    {
      "inputs": [],
      "name": "CALLBACK_PROXY",
      "outputs": [
        {
          "internalType": "address",
          "name": "",
          "type": "address"
        }
      ],
      "stateMutability": "view",
      "type": "function"
    },
    {
      "inputs": [],
      "name": "DOMAIN_SEPARATOR",
      "outputs": [
        {
          "internalType": "bytes32",
          "name": "",
          "type": "bytes32"
        }
      ],
      "stateMutability": "view",
      "type": "function"
    },
    {
      "inputs": [],
      "name": "decimals",
      "outputs": [
        {
          "internalType": "uint8",
          "name": "",
          "type": "uint8"
        }
      ],
      "stateMutability": "view",
      "type": "function"
    },
    {
      "inputs": [],
      "name": "description",
      "outputs": [
        {
          "internalType": "string",
          "name": "",
          "type": "string"
        }
      ],
      "stateMutability": "view",
      "type": "function"
    },
    {
      "inputs": [
        {
          "internalType": "uint80",
          "name": "_roundId",
          "type": "uint80"
        }
      ],
      "name": "getRoundData",
      "outputs": [
        {
          "internalType": "uint80",
          "name": "",
          "type": "uint80"
        },
        {
          "internalType": "int256",
          "name": "",
          "type": "int256"
        },
        {
          "internalType": "uint256",
          "name": "",
          "type": "uint256"
        },
        {
          "internalType": "uint256",
          "name": "",
          "type": "uint256"
        },
        {
          "internalType": "uint80",
          "name": "",
          "type": "uint80"
        }
      ],
      "stateMutability": "view",
      "type": "function"
    },
    {
      "inputs": [],
      "name": "latestRound",
      "outputs": [
        {
          "internalType": "uint80",
          "name": "roundId",
          "type": "uint80"
        },
        {
          "internalType": "int256",
          "name": "answer",
          "type": "int256"
        },
        {
          "internalType": "uint256",
          "name": "startedAt",
          "type": "uint256"
        },
        {
          "internalType": "uint256",
          "name": "updatedAt",
          "type": "uint256"
        },
        {
          "internalType": "uint80",
          "name": "answeredInRound",
          "type": "uint80"
        }
      ],
      "stateMutability": "view",
      "type": "function"
    },
    {
      "inputs": [],
      "name": "latestRoundData",
      "outputs": [
        {
          "internalType": "uint80",
          "name": "",
          "type": "uint80"
        },
        {
          "internalType": "int256",
          "name": "",
          "type": "int256"
        },
        {
          "internalType": "uint256",
          "name": "",
          "type": "uint256"
        },
        {
          "internalType": "uint256",
          "name": "",
          "type": "uint256"
        },
        {
          "internalType": "uint80",
          "name": "",
          "type": "uint80"
        }
      ],
      "stateMutability": "view",
      "type": "function"
    },
    {
      "inputs": [],
      "name": "pay",
      "outputs": [],
      "stateMutability": "payable",
      "type": "function"
    },
    {
      "inputs": [],
      "name": "reactiveVmId",
      "outputs": [
        {
          "internalType": "address",
          "name": "",
          "type": "address"
        }
      ],
      "stateMutability": "view",
      "type": "function"
    },
    {
      "inputs": [
        {
          "internalType": "address",
          "name": "sender",
          "type": "address"
        },
        {
          "internalType": "bytes32",
          "name": "_domainSeparator",
          "type": "bytes32"
        },
        {
          "internalType": "uint80",
          "name": "_roundId",
          "type": "uint80"
        },
        {
          "internalType": "int256",
          "name": "_answer",
          "type": "int256"
        },
        {
          "internalType": "uint256",
          "name": "_startedAt",
          "type": "uint256"
        },
        {
          "internalType": "uint256",
          "name": "_updatedAt",
          "type": "uint256"
        },
        {
          "internalType": "uint80",
          "name": "_answeredInRound",
          "type": "uint80"
        }
      ],
      "name": "updatePrice",
      "outputs": [],
      "stateMutability": "nonpayable",
      "type": "function"
    },
    {
      "inputs": [],
      "name": "version",
      "outputs": [
        {
          "internalType": "uint256",
          "name": "",
          "type": "uint256"
        }
      ],
      "stateMutability": "view",
      "type": "function"
    },
    {
      "stateMutability": "payable",
      "type": "receive"
    }
  ],
  "bytecode": "0x60a060405234801561000f575f80fd5b5060405161084038038061084083398101604081905261002e9161009d565b6001600160a01b0381166100885760405162461bcd60e51b815260206004820152601960248201527f4665656450726f78793a20696e76616c69642052564d20494400000000000000604482015260640160405180910390fd5b6001600160a01b0316608052426002556100ca565b5f602082840312156100ad575f80fd5b81516001600160a01b03811681146100c3575f80fd5b9392505050565b6080516107576100e95f395f818161010d015261039701526107575ff3fe60806040526004361061009d575f3560e01c806354fd4d501161006257806354fd4d5014610188578063668a0f021461019c5780637284e416146102015780639a6fc8f514610256578063a583669314610275578063feaf968c1461029c575f80fd5b80631b9265b8146100a85780631df24c96146100b2578063313ce567146100d157806333424f83146100fc5780633644e51514610147575f80fd5b366100a457005b5f80fd5b6100b06102c8565b005b3480156100bd575f80fd5b506100b06100cc366004610644565b610332565b3480156100dc575f80fd5b506100e5600881565b60405160ff90911681526020015b60405180910390f35b348015610107575f80fd5b5061012f7f000000000000000000000000000000000000000000000000000000000000000081565b6040516001600160a01b0390911681526020016100f3565b348015610152575f80fd5b5061017a7f5cb13ea24ddad28958cbe9f03e05312aa1b9bb396626409765353f4054f4a8bb81565b6040519081526020016100f3565b348015610193575f80fd5b5061017a600181565b3480156101a7575f80fd5b505f546001546002546003546004546101cd946001600160501b03908116949392911685565b604080516001600160501b03968716815260208101959095528401929092526060830152909116608082015260a0016100f3565b34801561020c575f80fd5b506102496040518060400160405280601981526020017f4254432f55534420285265616374697665204d6972726f72290000000000000081525081565b6040516100f391906106b6565b348015610261575f80fd5b506101cd610270366004610701565b610598565b348015610280575f80fd5b5061012f73c9f36411c9897e7f959d99ffca2a0ba7ee0d7bda81565b3480156102a7575f80fd5b505f546001546002546003546004546001600160501b0394851694166101cd565b3373c9f36411c9897e7f959d99ffca2a0ba7ee0d7bda146103305760405162461bcd60e51b815260206004820152601d60248201527f4665656450726f78793a206e6f742052656163746976652070726f787900000060448201526064015b60405180910390fd5b565b3373c9f36411c9897e7f959d99ffca2a0ba7ee0d7bda146103955760405162461bcd60e51b815260206004820152601d60248201527f4665656450726f78793a206e6f742052656163746976652070726f78790000006044820152606401610327565b7f00000000000000000000000000000000000000000000000000000000000000006001600160a01b0316876001600160a01b0316146104165760405162461bcd60e51b815260206004820152601e60248201527f4665656450726f78793a20756e617574686f72697a65642073656e64657200006044820152606401610327565b7f5cb13ea24ddad28958cbe9f03e05312aa1b9bb396626409765353f4054f4a8bb86146104915760405162461bcd60e51b815260206004820152602360248201527f4665656450726f78793a20696e76616c696420646f6d61696e207365706172616044820152623a37b960e91b6064820152608401610327565b60035482116104db5760405162461bcd60e51b81526020600482015260166024820152754665656450726f78793a207374616c6520707269636560501b6044820152606401610327565b6040805160a080820183526001600160501b0388811680845260208085018a9052848601899052606080860189905292871660809586018190525f805469ffffffffffffffffffff19908116851790915560018c905560028b905560038a9055600480549091168217905586519283529082018a9052948101889052908101869052918201929092527fb5d1a42c531f5ab470930f7ffb04e5669725fcbdecee9ca94095fa4717b43f99910160405180910390a150505050505050565b5f805481908190819081906001600160501b038781169116146105fd5760405162461bcd60e51b815260206004820152601a60248201527f4665656450726f78793a20726f756e64206e6f7420666f756e640000000000006044820152606401610327565b50505f546001546002546003546004546001600160501b03948516999398509196509450919091169150565b80356001600160501b038116811461063f575f80fd5b919050565b5f805f805f805f60e0888a03121561065a575f80fd5b87356001600160a01b0381168114610670575f80fd5b96506020880135955061068560408901610629565b9450606088013593506080880135925060a088013591506106a860c08901610629565b905092959891949750929550565b5f6020808352835180828501525f5b818110156106e1578581018301518582016040015282016106c5565b505f604082860101526040601f19601f8301168501019250505092915050565b5f60208284031215610711575f80fd5b61071a82610629565b939250505056fea2646970667358221220706ed41bc9d5fdb65d1dd457158a435b00529ca01fa9b05e0744beeea66a81c964736f6c63430008140033",
  "linkReferences": {},
  "deployedLinkReferences": {},
  "immutableReferences": {
    "63": [
      {
        "length": 32,
        "start": 269
      },
      {
        "length": 32,
        "start": 919
      }
    ]
  },
  "inputSourceName": "project/contracts/FeedProxy.sol",
  "buildInfoId": "solc-0_8_20-72a2a6882300d3c50074d42f4fe344d6b9c56795"
}