{
  "_format": "hh3-artifact-1",
  "contractName": "ReactiveMirror",
  "sourceName": "contracts/ReactiveMirror.sol",
  "abi": [
    {
      "inputs": [
        {
          "internalType": "address",
          "name": "_originFeed",
          "type": "address"
        },
        {
          "internalType": "address",
          "name": "_destContract",
          "type": "address"
        },
        {
          "internalType": "address",
          "name": "_systemContract",
          "type": "address"
        }
      ],
      "stateMutability": "nonpayable",
      "type": "constructor"
    },
    {
      "anonymous": false,
      "inputs": [
        {
          "indexed": true,
          "internalType": "uint256",
          "name": "chain_id",
          "type": "uint256"
        },
        {
          "indexed": true,
          "internalType": "address",
          "name": "_contract",
          "type": "address"
        },
        {
          "indexed": true,
          "internalType": "uint64",
          "name": "gas_limit",
          "type": "uint64"
        },
        {
          "indexed": false,
          "internalType": "bytes",
          "name": "payload",
          "type": "bytes"
        }
      ],
      "name": "Callback",
      "type": "event"
    },
    {
      "anonymous": false,
      "inputs": [
        {
          "indexed": false,
          "internalType": "uint256",
          "name": "chainId",
          "type": "uint256"
        },
        {
          "indexed": false,
          "internalType": "address",
          "name": "destContract",
          "type": "address"
        },
        {
          "indexed": false,
          "internalType": "uint64",
          "name": "gasLimit",
          "type": "uint64"
        }
      ],
      "name": "DebugCallbackEmitted",
      "type": "event"
    },
    {
      "anonymous": false,
      "inputs": [
        {
          "indexed": false,
          "internalType": "bytes",
          "name": "data",
          "type": "bytes"
        },
        {
          "indexed": false,
          "internalType": "uint256",
          "name": "length",
          "type": "uint256"
        }
      ],
      "name": "DebugData",
      "type": "event"
    },
    {
      "anonymous": false,
      "inputs": [],
      "name": "DebugDecodeFailed",
      "type": "event"
    },
    {
      "anonymous": false,
      "inputs": [
        {
          "indexed": false,
          "internalType": "int256",
          "name": "answer",
          "type": "int256"
        },
        {
          "indexed": false,
          "internalType": "uint256",
          "name": "roundId",
          "type": "uint256"
        },
        {
          "indexed": false,
          "internalType": "uint256",
          "name": "updatedAt",
          "type": "uint256"
        }
      ],
      "name": "DebugDecodeSuccess",
      "type": "event"
    },
    {
      "anonymous": false,
      "inputs": [
        {
          "indexed": false,
          "internalType": "string",
          "name": "step",
          "type": "string"
        },
        {
          "indexed": false,
          "internalType": "uint256",
          "name": "value1",
          "type": "uint256"
        },
        {
          "indexed": false,
          "internalType": "uint256",
          "name": "value2",
          "type": "uint256"
        }
      ],
      "name": "DebugStep",
      "type": "event"
    },
    {
      "inputs": [],
      "name": "CALLBACK_GAS_LIMIT",
      "outputs": [
        {
          "internalType": "uint64",
          "name": "",
          "type": "uint64"
        }
      ],
      "stateMutability": "view",
      "type": "function"
    },
    {
      "inputs": [],
      "name": "DEST_CHAIN_ID",
      "outputs": [
        {
          "internalType": "uint256",
          "name": "",
          "type": "uint256"
        }
      ],
      "stateMutability": "view",
      "type": "function"
    },
    {
      "inputs": [],
      "name": "DOMAIN_SEPARATOR",
      "outputs": [
        {
          "internalType": "bytes32",
          "name": "",
          "type": "bytes32"
        }
      ],
      "stateMutability": "view",
      "type": "function"
    },
    {
      "inputs": [],
      "name": "ORIGIN_CHAIN_ID",
      "outputs": [
        {
          "internalType": "uint256",
          "name": "",
          "type": "uint256"
        }
      ],
      "stateMutability": "view",
      "type": "function"
    },
    {
      "inputs": [],
      "name": "REACTIVE_IGNORE",
      "outputs": [
        {
          "internalType": "uint256",
          "name": "",
          "type": "uint256"
        }
      ],
      "stateMutability": "view",
      "type": "function"
    },
    {
      "inputs": [],
      "name": "SYSTEM_CONTRACT",
      "outputs": [
        {
          "internalType": "address",
          "name": "",
          "type": "address"
        }
      ],
      "stateMutability": "view",
      "type": "function"
    },
    {
      "inputs": [],
      "name": "TOPIC_0",
      "outputs": [
        {
          "internalType": "uint256",
          "name": "",
          "type": "uint256"
        }
      ],
      "stateMutability": "view",
      "type": "function"
    },
    {
      "inputs": [
        {
          "internalType": "bytes",
          "name": "data",
          "type": "bytes"
        }
      ],
      "name": "decodeEventData",
      "outputs": [
        {
          "internalType": "int256",
          "name": "",
          "type": "int256"
        },
        {
          "internalType": "uint256",
          "name": "",
          "type": "uint256"
        },
        {
          "internalType": "uint256",
          "name": "",
          "type": "uint256"
        }
      ],
      "stateMutability": "pure",
      "type": "function"
    },
    {
      "inputs": [
        {
          "internalType": "bytes",
          "name": "data",
          "type": "bytes"
        }
      ],
      "name": "decodeSingleValue",
      "outputs": [
        {
          "internalType": "uint256",
          "name": "",
          "type": "uint256"
        }
      ],
      "stateMutability": "pure",
      "type": "function"
    },
    {
      "inputs": [],
      "name": "destContract",
      "outputs": [
        {
          "internalType": "address",
          "name": "",
          "type": "address"
        }
      ],
      "stateMutability": "view",
      "type": "function"
    },
    {
      "inputs": [],
      "name": "originFeed",
      "outputs": [
        {
          "internalType": "address",
          "name": "",
          "type": "address"
        }
      ],
      "stateMutability": "view",
      "type": "function"
    },
    {
      "inputs": [],
      "name": "pay",
      "outputs": [],
      "stateMutability": "payable",
      "type": "function"
    },
    {
      "inputs": [
        {
          "components": [
            {
              "internalType": "uint256",
              "name": "chain_id",
              "type": "uint256"
            },
            {
              "internalType": "address",
              "name": "_contract",
              "type": "address"
            },
            {
              "internalType": "uint256",
              "name": "topic_0",
              "type": "uint256"
            },
            {
              "internalType": "uint256",
              "name": "topic_1",
              "type": "uint256"
            },
            {
              "internalType": "uint256",
              "name": "topic_2",
              "type": "uint256"
            },
            {
              "internalType": "uint256",
              "name": "topic_3",
              "type": "uint256"
            },
            {
              "internalType": "bytes",
              "name": "data",
              "type": "bytes"
            },
            {
              "internalType": "uint256",
              "name": "block_number",
              "type": "uint256"
            },
            {
              "internalType": "uint256",
              "name": "op_code",
              "type": "uint256"
            },
            {
              "internalType": "uint256",
              "name": "block_hash",
              "type": "uint256"
            },
            {
              "internalType": "uint256",
              "name": "tx_hash",
              "type": "uint256"
            },
            {
              "internalType": "uint256",
              "name": "log_index",
              "type": "uint256"
            }
          ],
          "internalType": "struct IReactive.LogRecord",
          "name": "log",
          "type": "tuple"
        }
      ],
      "name": "react",
      "outputs": [],
      "stateMutability": "nonpayable",
      "type": "function"
    },
    {
      "stateMutability": "payable",
      "type": "receive"
    }
  ],
  "bytecode": "0x60c060405234801561000f575f80fd5b50604051610b7d380380610b7d83398101604081905261002e91610202565b6001600160a01b0383166100895760405162461bcd60e51b815260206004820152601360248201527f496e76616c6964206f726967696e20666565640000000000000000000000000060448201526064015b60405180910390fd5b6001600160a01b0382166100df5760405162461bcd60e51b815260206004820152601560248201527f496e76616c6964206465737420636f6e747261637400000000000000000000006044820152606401610080565b6001600160a01b0380841660805282811660a0525f908216156101025781610107565b62ffffff5b5f805460ff191662ffffff3b1590811790915590915060ff166101de576080516040516305a6aced60e41b81526201388260048201526001600160a01b0391821660248201527f0559884fd3a460db3073b7fc896cc77986f16e378210ded43186175bf646fc5f60448201527fa65f96fc951c35ead38878e0f0b7a3c744a6f5ccc1476b313353ce31712313ad606482018190526084820181905260a482015290821690635a6aced09060c4015f604051808303815f87803b1580156101cb575f80fd5b505af19250505080156101dc575060015b505b50505050610242565b80516001600160a01b03811681146101fd575f80fd5b919050565b5f805f60608486031215610214575f80fd5b61021d846101e7565b925061022b602085016101e7565b9150610239604085016101e7565b90509250925092565b60805160a05161090c6102715f395f818161027f015261060401525f81816102b2015261039d015261090c5ff3fe6080604052600436106100c2575f3560e01c80637573ca921161007c5780638671b5da116100575780638671b5da1461023b578063bb4fe3e81461026e578063ec82d983146102a1578063fd342df7146102d4575f80fd5b80637573ca92146101bb5780637e0c0338146101e957806380c3543314610208575f80fd5b80630d152c2c146100cd5780630dd85b00146100ee5780631b9265b8146101175780632e3ecfd31461011f57806333d608f1146101595780633644e51514610188575f80fd5b366100c957005b5f80fd5b3480156100d8575f80fd5b506100ec6100e73660046106f6565b6102ea565b005b3480156100f9575f80fd5b506101046201388281565b6040519081526020015b60405180910390f35b6100ec610666565b34801561012a575f80fd5b5061013e61013936600461072e565b6106c6565b6040805193845260208401929092529082015260600161010e565b348015610164575f80fd5b5061016f6207a12081565b60405167ffffffffffffffff909116815260200161010e565b348015610193575f80fd5b506101047f5cb13ea24ddad28958cbe9f03e05312aa1b9bb396626409765353f4054f4a8bb81565b3480156101c6575f80fd5b506101d162ffffff81565b6040516001600160a01b03909116815260200161010e565b3480156101f4575f80fd5b5061010461020336600461072e565b6106e2565b348015610213575f80fd5b506101047f0559884fd3a460db3073b7fc896cc77986f16e378210ded43186175bf646fc5f81565b348015610246575f80fd5b506101047fa65f96fc951c35ead38878e0f0b7a3c744a6f5ccc1476b313353ce31712313ad81565b348015610279575f80fd5b506101d17f000000000000000000000000000000000000000000000000000000000000000081565b3480156102ac575f80fd5b506101d17f000000000000000000000000000000000000000000000000000000000000000081565b3480156102df575f80fd5b5061010462aa36a781565b5f5460ff166103405760405162461bcd60e51b815260206004820152601760248201527f52656163746976654d6972726f723a20564d206f6e6c7900000000000000000060448201526064015b60405180910390fd5b803562013882146103935760405162461bcd60e51b815260206004820152601b60248201527f52656163746976654d6972726f723a2077726f6e6720636861696e00000000006044820152606401610337565b6001600160a01b037f0000000000000000000000000000000000000000000000000000000000000000166103cd604083016020840161079a565b6001600160a01b0316146104235760405162461bcd60e51b815260206004820152601a60248201527f52656163746976654d6972726f723a2077726f6e6720666565640000000000006044820152606401610337565b7f0559884fd3a460db3073b7fc896cc77986f16e378210ded43186175bf646fc5f8160400135146104965760405162461bcd60e51b815260206004820152601b60248201527f52656163746976654d6972726f723a2077726f6e67206576656e7400000000006044820152606401610337565b5f80806060840135158015906104af5750608084013515155b1561051257606084013592506080840135915060206104d160c08601866107c0565b905010156104f15760405162461bcd60e51b81526004016103379061080a565b6104fe60c08501856107c0565b81019061050b919061084b565b9050610563565b606061052160c08601866107c0565b905010156105415760405162461bcd60e51b81526004016103379061080a565b61054e60c08501856107c0565b81019061055b9190610862565b919450925090505b6040515f602482018190527f5cb13ea24ddad28958cbe9f03e05312aa1b9bb396626409765353f4054f4a8bb604483015269ffffffffffffffffffff8416606483018190526084830186905260a4830184905260c4830184905260e4830152906101040160408051601f198184030181529181526020820180516001600160e01b0316630ef9264b60e11b179052519091506207a120906001600160a01b037f0000000000000000000000000000000000000000000000000000000000000000169062aa36a7907f8dd725fa9d6cd150017ab9e60318d40616439424e2fade9c1c58854950917dfc9061065790869061088b565b60405180910390a45050505050565b3362ffffff146106c45760405162461bcd60e51b815260206004820152602360248201527f52656163746976654d6972726f723a206e6f742053797374656d20436f6e74726044820152621858dd60ea1b6064820152608401610337565b565b5f80806106d584860186610862565b9250925092509250925092565b5f6106ef8284018461084b565b9392505050565b5f60208284031215610706575f80fd5b813567ffffffffffffffff81111561071c575f80fd5b820161018081850312156106ef575f80fd5b5f806020838503121561073f575f80fd5b823567ffffffffffffffff80821115610756575f80fd5b818501915085601f830112610769575f80fd5b813581811115610777575f80fd5b866020828501011115610788575f80fd5b60209290920196919550909350505050565b5f602082840312156107aa575f80fd5b81356001600160a01b03811681146106ef575f80fd5b5f808335601e198436030181126107d5575f80fd5b83018035915067ffffffffffffffff8211156107ef575f80fd5b602001915036819003821315610803575f80fd5b9250929050565b60208082526021908201527f52656163746976654d6972726f723a20696e73756666696369656e74206461746040820152606160f81b606082015260800190565b5f6020828403121561085b575f80fd5b5035919050565b5f805f60608486031215610874575f80fd5b505081359360208301359350604090920135919050565b5f6020808352835180828501525f5b818110156108b65785810183015185820160400152820161089a565b505f604082860101526040601f19601f830116850101925050509291505056fea26469706673582212201ca21079354c9554041b5afe70df8e2f3aceb650b5e9036b8ef11ac5e25103a664736f6c63430008140033",
  "linkReferences": {},
  "deployedLinkReferences": {},
  "immutableReferences": {
    "100": [
      {
        "length": 32,
        "start": 690
      },
      {
        "length": 32,
        "start": 925
      }
    ],
    "105": [
      {
        "length": 32,
        "start": 639
      },
      {
        "length": 32,
        "start": 1540
      }
    ]
  },
  "inputSourceName": "project/contracts/ReactiveMirror.sol",
  "buildInfoId": "solc-0_8_20-b33a6df357982ccbaf1a68ce902600427be67c26"
}