{
  "_format": "hh3-artifact-1",
  "contractName": "MockFeed",
  "sourceName": "contracts/MockFeed.sol",
  "abi": [
    {
      "inputs": [
        {
          "internalType": "int256",
          "name": "_initialPrice",
          "type": "int256"
        }
      ],
      "stateMutability": "nonpayable",
      "type": "constructor"
    },
    {
      "anonymous": false,
      "inputs": [
        {
          "indexed": false,
          "internalType": "int256",
          "name": "current",
          "type": "int256"
        },
        {
          "indexed": false,
          "internalType": "uint256",
          "name": "roundId",
          "type": "uint256"
        },
        {
          "indexed": false,
          "internalType": "uint256",
          "name": "updatedAt",
          "type": "uint256"
        }
      ],
      "name": "AnswerUpdated",
      "type": "event"
    },
    {
      "inputs": [],
      "name": "answer",
      "outputs": [
        {
          "internalType": "int256",
          "name": "",
          "type": "int256"
        }
      ],
      "stateMutability": "view",
      "type": "function"
    },
    {
      "inputs": [],
      "name": "answeredInRound",
      "outputs": [
        {
          "internalType": "uint80",
          "name": "",
          "type": "uint80"
        }
      ],
      "stateMutability": "view",
      "type": "function"
    },
    {
      "inputs": [],
      "name": "decimals",
      "outputs": [
        {
          "internalType": "uint8",
          "name": "",
          "type": "uint8"
        }
      ],
      "stateMutability": "view",
      "type": "function"
    },
    {
      "inputs": [],
      "name": "description",
      "outputs": [
        {
          "internalType": "string",
          "name": "",
          "type": "string"
        }
      ],
      "stateMutability": "view",
      "type": "function"
    },
    {
      "inputs": [
        {
          "internalType": "uint80",
          "name": "_roundId",
          "type": "uint80"
        }
      ],
      "name": "getRoundData",
      "outputs": [
        {
          "internalType": "uint80",
          "name": "",
          "type": "uint80"
        },
        {
          "internalType": "int256",
          "name": "",
          "type": "int256"
        },
        {
          "internalType": "uint256",
          "name": "",
          "type": "uint256"
        },
        {
          "internalType": "uint256",
          "name": "",
          "type": "uint256"
        },
        {
          "internalType": "uint80",
          "name": "",
          "type": "uint80"
        }
      ],
      "stateMutability": "view",
      "type": "function"
    },
    {
      "inputs": [],
      "name": "latestRoundData",
      "outputs": [
        {
          "internalType": "uint80",
          "name": "",
          "type": "uint80"
        },
        {
          "internalType": "int256",
          "name": "",
          "type": "int256"
        },
        {
          "internalType": "uint256",
          "name": "",
          "type": "uint256"
        },
        {
          "internalType": "uint256",
          "name": "",
          "type": "uint256"
        },
        {
          "internalType": "uint80",
          "name": "",
          "type": "uint80"
        }
      ],
      "stateMutability": "view",
      "type": "function"
    },
    {
      "inputs": [],
      "name": "roundId",
      "outputs": [
        {
          "internalType": "uint80",
          "name": "",
          "type": "uint80"
        }
      ],
      "stateMutability": "view",
      "type": "function"
    },
    {
      "inputs": [],
      "name": "startedAt",
      "outputs": [
        {
          "internalType": "uint256",
          "name": "",
          "type": "uint256"
        }
      ],
      "stateMutability": "view",
      "type": "function"
    },
    {
      "inputs": [
        {
          "internalType": "int256",
          "name": "_newPrice",
          "type": "int256"
        }
      ],
      "name": "updatePrice",
      "outputs": [],
      "stateMutability": "nonpayable",
      "type": "function"
    },
    {
      "inputs": [],
      "name": "updatedAt",
      "outputs": [
        {
          "internalType": "uint256",
          "name": "",
          "type": "uint256"
        }
      ],
      "stateMutability": "view",
      "type": "function"
    },
    {
      "inputs": [],
      "name": "version",
      "outputs": [
        {
          "internalType": "uint256",
          "name": "",
          "type": "uint256"
        }
      ],
      "stateMutability": "view",
      "type": "function"
    }
  ],
  "bytecode": "0x608060405234801561000f575f80fd5b5060405161049438038061049483398101604081905261002e9161005f565b5f805460016001600160501b0319918216811790925591815542600281905560035560048054909216179055610076565b5f6020828403121561006f575f80fd5b5051919050565b610411806100835f395ff3fe608060405234801561000f575f80fd5b50600436106100a6575f3560e01c80638cd221c91161006e5780638cd221c9146101295780639a6fc8f514610153578063c22c24991461019a578063d4c19bda146101ad578063f21f537d146101c2578063feaf968c146101cb575f80fd5b8063313ce567146100aa57806354fd4d50146100c95780637284e416146100df5780637519ab501461011757806385bb7d6914610120575b5f80fd5b6100b2600881565b60405160ff90911681526020015b60405180910390f35b6100d1600181565b6040519081526020016100c0565b61010a6040518060400160405280600c81526020016b135bd8dac8109510cbd554d160a21b81525081565b6040516100c0919061031b565b6100d160035481565b6100d160015481565b5f5461013b906001600160501b031681565b6040516001600160501b0390911681526020016100c0565b610166610161366004610366565b6101eb565b604080516001600160501b03968716815260208101959095528401929092526060830152909116608082015260a0016100c0565b60045461013b906001600160501b031681565b6101c06101bb366004610393565b610272565b005b6100d160025481565b5f546001546002546003546004546001600160501b039485169416610166565b5f805481908190819081906001600160501b038781169116146102465760405162461bcd60e51b815260206004820152600f60248201526e149bdd5b99081b9bdd08199bdd5b99608a1b604482015260640160405180910390fd5b50505f546001546002546003546004546001600160501b03948516999398509196509450919091169150565b5f80546001600160501b03169080610289836103aa565b82546101009290920a6001600160501b0381810219909316918316021790915560018390556003805460025542908190555f54600480549190931669ffffffffffffffffffff1990911681179092556040805185815260208101939093528201527f0559884fd3a460db3073b7fc896cc77986f16e378210ded43186175bf646fc5f915060600160405180910390a150565b5f6020808352835180828501525f5b818110156103465785810183015185820160400152820161032a565b505f604082860101526040601f19601f8301168501019250505092915050565b5f60208284031215610376575f80fd5b81356001600160501b038116811461038c575f80fd5b9392505050565b5f602082840312156103a3575f80fd5b5035919050565b5f6001600160501b038083168181036103d157634e487b7160e01b5f52601160045260245ffd5b600101939250505056fea2646970667358221220ae6de9d8bf380d0f107895145eb18481e2c353476a734ac7480388b65e01a63c64736f6c63430008140033",
  "linkReferences": {},
  "deployedLinkReferences": {},
  "immutableReferences": {},
  "inputSourceName": "project/contracts/MockFeed.sol",
  "buildInfoId": "solc-0_8_20-3b79574443ba0816a2e1e6b894622b06041de56b"
}